{
  "contractName": "SchrodingersCat",
  "abi": [
    {
      "anonymous": false,
      "inputs": [
        {
          "indexed": false,
          "internalType": "uint256",
          "name": "id",
          "type": "uint256"
        }
      ],
      "name": "Created",
      "type": "event"
    },
    {
      "anonymous": false,
      "inputs": [
        {
          "indexed": false,
          "internalType": "bool",
          "name": "is_alive",
          "type": "bool"
        }
      ],
      "name": "Observed",
      "type": "event"
    },
    {
      "constant": true,
      "inputs": [
        {
          "internalType": "address",
          "name": "",
          "type": "address"
        },
        {
          "internalType": "uint256",
          "name": "",
          "type": "uint256"
        }
      ],
      "name": "boxes",
      "outputs": [
        {
          "internalType": "enum SchrodingersCat.CatState",
          "name": "cat_state",
          "type": "uint8"
        },
        {
          "internalType": "enum SchrodingersCat.BoxState",
          "name": "box_state",
          "type": "uint8"
        }
      ],
      "payable": false,
      "stateMutability": "view",
      "type": "function"
    },
    {
      "constant": true,
      "inputs": [],
      "name": "lastId",
      "outputs": [
        {
          "internalType": "uint256",
          "name": "",
          "type": "uint256"
        }
      ],
      "payable": false,
      "stateMutability": "view",
      "type": "function"
    },
    {
      "constant": false,
      "inputs": [],
      "name": "createBox",
      "outputs": [
        {
          "internalType": "uint256",
          "name": "id",
          "type": "uint256"
        }
      ],
      "payable": false,
      "stateMutability": "nonpayable",
      "type": "function"
    },
    {
      "constant": false,
      "inputs": [
        {
          "internalType": "uint256",
          "name": "boxNr",
          "type": "uint256"
        }
      ],
      "name": "openBox",
      "outputs": [],
      "payable": true,
      "stateMutability": "payable",
      "type": "function"
    },
    {
      "constant": true,
      "inputs": [
        {
          "internalType": "uint256",
          "name": "boxNr",
          "type": "uint256"
        }
      ],
      "name": "catIsAlive",
      "outputs": [
        {
          "internalType": "bool",
          "name": "alive",
          "type": "bool"
        }
      ],
      "payable": false,
      "stateMutability": "view",
      "type": "function"
    }
  ],
  "bytecode": "0x608060405234801561001057600080fd5b50610867806100206000396000f3fe60806040526004361061004a5760003560e01c806313b980a41461004f5780635a53ddea146100e15780637fa767bc14610134578063b1e5e2b71461015f578063c1292cc31461018d575b600080fd5b34801561005b57600080fd5b506100a86004803603604081101561007257600080fd5b81019080803573ffffffffffffffffffffffffffffffffffffffff169060200190929190803590602001909291905050506101b8565b604051808360028111156100b857fe5b60ff1681526020018260018111156100cc57fe5b60ff1681526020019250505060405180910390f35b3480156100ed57600080fd5b5061011a6004803603602081101561010457600080fd5b8101908080359060200190929190505050610203565b604051808215151515815260200191505060405180910390f35b34801561014057600080fd5b50610149610285565b6040518082815260200191505060405180910390f35b61018b6004803603602081101561017557600080fd5b81019080803590602001909291905050506103a5565b005b34801561019957600080fd5b506101a2610780565b6040518082815260200191505060405180910390f35b6000602052816000526040600020602052806000526040600020600091509150508060000160009054906101000a900460ff16908060000160019054906101000a900460ff16905082565b60006001600281111561021257fe5b6000803373ffffffffffffffffffffffffffffffffffffffff1673ffffffffffffffffffffffffffffffffffffffff168152602001908152602001600020600084815260200190815260200160002060000160009054906101000a900460ff16600281111561027d57fe5b149050919050565b600060018054016001819055506040518060400160405280600060028111156102aa57fe5b81526020016001808111156102bb57fe5b8152506000803373ffffffffffffffffffffffffffffffffffffffff1673ffffffffffffffffffffffffffffffffffffffff1681526020019081526020016000206000600154815260200190815260200160002060008201518160000160006101000a81548160ff0219169083600281111561033357fe5b021790555060208201518160000160016101000a81548160ff0219169083600181111561035c57fe5b02179055509050507f06acbfb32bcf8383f3b0a768b70ac9ec234ea0f2d3b9c77fa6a2de69b919aad16001546040518082815260200191505060405180910390a1600154905090565b806001808111156103b257fe5b6000803373ffffffffffffffffffffffffffffffffffffffff1673ffffffffffffffffffffffffffffffffffffffff168152602001908152602001600020600083815260200190815260200160002060000160019054906101000a900460ff16600181111561041d57fe5b14610490576040517f08c379a000000000000000000000000000000000000000000000000000000000815260040180806020018281038252601b8152602001807f426f782068617320616c7265616479206265656e206f70656e6564000000000081525060200191505060405180910390fd5b6000339050600034905060008111610510576040517f08c379a000000000000000000000000000000000000000000000000000000000815260040180806020018281038252601c8152602001807f56616c7565206d75737420626520686967686572207468616e20302e0000000081525060200191505060405180910390fd5b610518610802565b6000803373ffffffffffffffffffffffffffffffffffffffff1673ffffffffffffffffffffffffffffffffffffffff16815260200190815260200160002060008681526020019081526020016000206040518060400160405290816000820160009054906101000a900460ff16600281111561059057fe5b600281111561059b57fe5b81526020016000820160019054906101000a900460ff1660018111156105bd57fe5b60018111156105c857fe5b8152505090506000816020019060018111156105e057fe5b908160018111156105ed57fe5b815250506105f9610786565b1561066d5760018160000190600281111561061057fe5b9081600281111561061d57fe5b815250508273ffffffffffffffffffffffffffffffffffffffff166108fc839081150290604051600060405180830381858888f19350505050158015610667573d6000803e3d6000fd5b50610691565b60028160000190600281111561067f57fe5b9081600281111561068c57fe5b815250505b806000803373ffffffffffffffffffffffffffffffffffffffff1673ffffffffffffffffffffffffffffffffffffffff168152602001908152602001600020600087815260200190815260200160002060008201518160000160006101000a81548160ff0219169083600281111561070557fe5b021790555060208201518160000160016101000a81548160ff0219169083600181111561072e57fe5b02179055509050507f996c6f0f4470c8351fb75d52f1da3dcab78057e783035d683fea9bd942d28e4a61076086610203565b604051808215151515815260200191505060405180910390a15050505050565b60015481565b6000806002444142604051602001808481526020018373ffffffffffffffffffffffffffffffffffffffff1673ffffffffffffffffffffffffffffffffffffffff1660601b815260140182815260200193505050506040516020818303038152906040528051906020012060001c816107fb57fe5b0614905090565b60405180604001604052806000600281111561081a57fe5b81526020016000600181111561082c57fe5b8152509056fea265627a7a7231582026068501b1cd3c4708055ad76f8631c36f28ca91434baa8fc4f2ada5da4d0c3e64736f6c63430005100032",
  "source": "pragma solidity >=0.5.11;\r\n\r\n/*\r\n* This is the contract that imitates the Copenhagen interpretation of Schrodinger's Cat problem.\r\n* The key difference is that the observer pays to create a box and when the box is opened and cat\r\n* appears to be alive, observer is rewarded with her/his fee.\r\n**/\r\ncontract SchrodingersCat {\r\n\r\n    event Observed(bool is_alive);\r\n  \tevent Created(uint id);\r\n\r\n    enum CatState {Superposition, Alive, Dead}\r\n    enum BoxState {Open, Closed}\r\n\r\n    struct Box {\r\n        CatState cat_state;\r\n        BoxState box_state;\r\n    }\r\n\r\n    mapping(address => mapping (uint => Box)) public boxes;\r\n\r\n    uint public lastId;\r\n\r\n    /**\r\n    * Create a box that is mapped to the sender address.\r\n    * Initially the box is closed and the cat is in the superposition.\r\n    * Only one box per sender address is possible.\r\n    */\r\n    function createBox() public returns(uint id) {\r\n        lastId = lastId + 1;\r\n        boxes[msg.sender][lastId] = Box(CatState.Superposition, BoxState.Closed);\r\n      \temit Created(lastId);\r\n        return lastId;\r\n    }\r\n\r\n    /**\r\n    * Opens the box and observes the contents of the box.\r\n    */\r\n    function openBox (uint boxNr) public payable boxIsClosed(boxNr){\r\n        address payable observer = address(msg.sender);\r\n        uint fee = msg.value;\r\n        require(fee > 0, \"Value must be higher than 0.\");\r\n        Box memory myBox = boxes[msg.sender][boxNr];\r\n        myBox.box_state = BoxState.Open;\r\n        if(getRandom()) {\r\n            myBox.cat_state = CatState.Alive;\r\n            // if the cat is alive when the box is open -> give reward to observer\r\n            observer.transfer(fee);\r\n        } else{\r\n            myBox.cat_state = CatState.Dead;\r\n        }\r\n        boxes[msg.sender][boxNr] = myBox;\r\n        emit Observed(catIsAlive(boxNr));\r\n    }\r\n\r\n    /**\r\n    * Checks whether the box is in the closed state.\r\n    */\r\n    modifier boxIsClosed(uint boxNr) {\r\n        require(boxes[msg.sender][boxNr].box_state == BoxState.Closed, \"Box has already been opened\");\r\n        _;\r\n    }\r\n\r\n    /**\r\n    * Returns True if the cat is alive, otherwise False.\r\n    */\r\n    function catIsAlive(uint boxNr) public view returns(bool alive){\r\n        return boxes[msg.sender][boxNr].cat_state == CatState.Alive;\r\n    }\r\n\r\n    /**\r\n    * Returns a random boolean.\r\n    */\r\n    function getRandom() private view returns(bool) {\r\n        return bool(uint256(keccak256(abi.encodePacked(block.difficulty, block.coinbase, block.timestamp)))%2 == 0);\r\n    }\r\n}\r\n",
  "sourcePath": "C:/Users/prush/Documents/git/BC1_Kristina/Day_07_Mon_9_12_2019/contracts/schr2.sol",
  "compiler": {
    "name": "solc",
    "version": "0.5.16+commit.9c3226ce.Emscripten.clang"
  },
  "schemaVersion": "3.0.21",
  "updatedAt": "2020-02-03T17:38:57.385Z",
  "devdoc": {
    "methods": {}
  },
  "userdoc": {
    "methods": {
      "catIsAlive(uint256)": {
        "notice": "Returns True if the cat is alive, otherwise False."
      },
      "createBox()": {
        "notice": "Create a box that is mapped to the sender address. Initially the box is closed and the cat is in the superposition. Only one box per sender address is possible."
      },
      "openBox(uint256)": {
        "notice": "Opens the box and observes the contents of the box."
      }
    }
  }
}